:100000000C94300A0C945F0A0C945F0A0C945F0AFB
:100010000C945F0A0C945F0A0C945F0A0C945F0ABC
:100020000C945F0A0C945F0A0C945F0A0C945F0AAC
:100030000C945F0A0C9401780C945F0A0C945F0A8C
:100040000C945F0A0C9458160C9408870C945F0A61
:100050000C94610A0C945F0A0C945F0A0C945F0A7A
:100060000C945F0A0C945F0A0C945F0A0C945F0A6C
:100070000C945F0A0C945F0A0C945F0A0C945F0A5C
:100080000C945F0A0C945F0A0C945F0A084AD73BF1
:100090003BCE016E84BCBFFDC12F3D6C74319ABD57
:1000A00056833DDA3D00C77F11BED9E4BB4C3E917B
:1000B0006BAAAABE000000803F07634236B79BD8F8
:1000C000A71A39685618AEBAAB558C1D3CB7CC5739
:1000D00063BD6DEDFD753EF6177231BF0000008007
:1000E0003F05A84CCDB2D44EB93836A9020C50B950
:1000F000918688083CA6AAAA2ABE000000803F0874
:10010000000000BE922449123EABAAAA2ABECDCC62
:10011000CC4C3E00000080BEABAAAAAA3E00000064
:1001200000BF000000803F0000000000084178D3BD
:10013000BB4387D1133D190E3CC3BD4282AD2B3E5C
:1001400068EC8276BED98FE1A93E4C80EFFFBE01FC
:10015000C4FF7F3F00000000004572726F723A00DA
:1001600054656D706572617475726520686561743F
:1001700065642062656420737769746368656420D0
:100180006F66662E204D415854454D50207472695B
:10019000676765726564202121003A204578747292
:1001A00075646572207377697463686564206F662F
:1001B000662E204D494E54454D5020747269676734
:1001C000657265642021003A204578747275646513
:1001D00072207377697463686564206F66662E2089
:1001E0004D415854454D502074726967676572657A
:1001F00064202100504944204175746F74756E6508
:100200002066696E6973686564202120506C6163A3
:100210006520746865204B702C204B6920616E64EA
:10022000204B6420636F6E7374616E747320696E0B
:100230002074686520636F6E6669677572617469A2
:100240006F6E2E6800504944204175746F74756E4E
:1002500065206661696C6564212074696D656F75E0
:10026000740020403A006F6B20543A0050494420FB
:100270004175746F74756E65206661696C65642183
:100280002054656D706572617475726520746F209D
:100290006869676800204B643A2000204B693A2067
:1002A00000204B703A200020436C6173696320503A
:1002B000494420002054753A2000204B753A200014
:1002C000206D61783A2000206D696E3A200020642C
:1002D0003A200020626961733A200057726F74659A
:1002E000200057726974696E6720746F2066696CAC
:1002F000653A20002E006F70656E206661696C653E
:10030000642C2046696C653A200053656C65637403
:10031000656420636F6465633A20006563686F3AC3
:100320000043616E6E6F7420656E74657220737524
:10033000626469723A004572726F723A0065727255
:100340006F722077726974696E6720746F206669B6
:100350006C65004E6F74205344207072696E74692E
:100360006E67002F005344207072696E74696E6767
:10037000206279746520002E0044656C6574696F95
:100380006E206661696C65642C2046696C653A2054
:100390000046696C652064656C657465643A002E7E
:1003A000006F70656E206661696C65642C2046691B
:1003B0006C653A200057726974696E6720746F200B
:1003C00066696C653A20002E006F70656E2066616C
:1003D000696C65642C2046696C653A20002E006FBC
:1003E00070656E206661696C65642C2046696C6579
:1003F0003A200046696C652073656C6563746564BA
:10040000002053697A653A0046696C65206F706513
:100410006E65643A002E006F70656E206661696CCF
:1004200065642C2046696C653A2000534420636162
:100430007264206F6B006F70656E526F6F74206610
:1004400061696C656400766F6C756D652E696E69A7
:1004500074206661696C656400534420696E697438
:10046000206661696C007C3C3E5E2B3D3F2F5B5DEE
:100470003B2C2A225C00496E76657273696F6E2090
:100480006661696C65642064756520746F207369AA
:100490006E67756C6172206D6174726978002E00F0
:1004A0006563686F3A0020746F6F206C6F6E672011
:1004B000657874727573696F6E2070726576656E9B
:1004C0007465640020636F6C642065787472757362
:1004D000696F6E2070726576656E74656400457232
:1004E000726F723A005072696E7465722073746F25
:1004F000707065642064756520746F206572726F1A
:1005000072732E2046697820746865206572726F58
:100510007220616E6420757365204D3939392074FD
:100520006F2072657374617274212E202854656D7A
:100530007065726174757265206973207265736588
:10054000742E20536574206974206265666F72652D
:100550002072657374617274696E672900507269E4
:100560006E7465722068616C7465642E206B696CB2
:100570006C28292063616C6C6564202121006F6BFD
:1005800000526573656E643A006563686F3A0022D5
:1005900000556E6B6E6F776E20636F6D6D616E646C
:1005A0003A220046726565204D656D6F72793A009A
:1005B0007A5F6D696E3A00795F6D696E3A00785FB7
:1005C0006D696E3A005A3A00593A0020436F756ED1
:1005D0007420583A00453A005A3A00593A00583ABD
:1005E000004649524D574152455F4E414D453A4DA7
:1005F00061726C696E2056313B20537072696E7463
:1006000065722F6772626C206D6173687570206609
:100610006F722067656E36204649524D57415245EC
:100620005F55524C3A687474703A2F2F7777772E53
:100630006D656E64656C2D70617274732E636F6D81
:100640002050524F544F434F4C5F56455253494FE1
:100650004E3A312E30204D414348494E455F545962
:1006600050453A4D656E64656C204558545255446A
:1006700045525F434F554E543A310A0020423A00EA
:1006800020453A00543A0020403A00202F002042F2
:100690003A00202F006F6B20543A002C206D6178B7
:1006A0003A002C206D696E3A006F6B205430207236
:1006B00061773A005241573A00456E642066696C92
:1006C00065206C69737400426567696E2066696CA9
:1006D00065206C6973740053657474696E67732068
:1006E00053746F7265640053746F72656420736530
:1006F0007474696E67732072657472656976656477
:100700003A002046505520456E61626C65640020B9
:100710005400205200204200205400205200204269
:1007200000546865726D6973746F722073657474B8
:10073000696E67733A204D33303420486820426236
:100740002052722054742C2048303D4265642C2085
:1007500048312E2E6E3D6E6F7A7A6C652C20623D8C
:10076000746865726D6973746F722062657461205C
:1007700076616C75652C20723D73657269657320B6
:100780007265736973746F722C20743D746865723E
:100790006D6973746F7220726573697374616E63CF
:1007A000652061732032354300205700204400202B
:1007B00049002020204D3330312050005049442042
:1007C00073657474696E67733A00205A002059008B
:1007D00020204D323038205800205A002059002067
:1007E000204D323036205800204500205A00205835
:1007F0000020420020540020204D3230352053008C
:10080000416476616E636564207661726961626CD1
:1008100065733A20533D4D696E206665656472616B
:10082000746520286D6D2F73292C20543D4D696E01
:100830002074726176656C206665656472617465AA
:1008400020286D6D2F73292C20423D6D696E696DD6
:10085000756D207365676D656E742074696D6520B4
:10086000286D73292C20583D6D6178696D756D2058
:100870007859206A65726B20286D6D2F73292C20A2
:10088000205A3D6D6178696D756D205A206A6572D8
:100890006B20286D6D2F73292C204B3D6164766190
:1008A0006E63655F6B0020540020204D3230342091
:1008B0005300416363656C65726174696F6E3A20C1
:1008C000533D616363656C65726174696F6E2C2062
:1008D000543D7265747261637420616363656C6515
:1008E000726174696F6E00204500205A0020590023
:1008F00020204D3230312058004D6178696D756D82
:1009000020416363656C65726174696F6E20286D48
:100910006D2F7332293A00204500205A00205900DB
:1009200020204D3230332058004D6178696D756D4F
:100930002066656564726174657320286D6D2F7320
:10094000293A00204500205A0020590020204D3926
:100950003220580053746570732070657220756E74
:1009600069743A0020573A0020453A00543A00444E
:100970006F6E65207072696E74696E672066696C4F
:1009800065005072696E7465722073746F70706563
:10099000642064756520746F206572726F72732EA7
:1009A0002046697820746865206572726F722061D4
:1009B0006E6420757365204D39393920746F20724B
:1009C000657374617274212E202854656D70657290
:1009D00061747572652069732072657365742E2069
:1009E000536574206974206265666F726520726554
:1009F0007374617274696E6729006F6B004E6F20AB
:100A00004C696E65204E756D6265722077697468F9
:100A100020636865636B73756D2C204C6173742063
:100A20004C696E653A004E6F20436865636B737561
:100A30006D2077697468206C696E65206E756D62D3
:100A400065722C204C617374204C696E653A0063AA
:100A50006865636B73756D206D69736D6174636830
:100A60002C204C617374204C696E653A004C696EA1
:100A700065204E756D626572206973206E6F7420FB
:100A80004C617374204C696E65204E756D626572A1
:100A90002B312C204C617374204C696E653A0044F4
:100AA0006F6E6520736176696E672066696C652E6E
:100AB000006F6B002020506C616E6E65724275662F
:100AC00066657242797465733A20002046726565E6
:100AD000204D656D6F72793A2000526570526170D9
:100AE00050726F00207C20417574686F723A20004C
:100AF000323031332D30312D31302D4A4D470020E9
:100B00004C61737420557064617465643A200031DF
:100B10002E302E3120525250004D61726C696E2081
:100B20000020536F66747761726520526573657437
:100B300000205761746368646F6720526573657441
:100B4000002042726F776E206F7574205265736556
:100B500074002045787465726E616C20526573650F
:100B60007400506F77657255700073746172740011
:100B70002200656E717565696E6720220024F40499
:100B8000D9201BC40C5C0E9804C4095F0265077170
:100B900001F405F900FB04B30048048700C10369B0
:100BA000005803550003034500BE023A0084023199
:100BB0000053022A002902250004022000E4011C3F
:100BC00000C8011900AF0117009801140084011337
:100BD00000710110006101100051010E0043010D70
:100BE0000036010B002B010B0020010B0015010941
:100BF000000C01090003010800FB000800F30008D5
:100C000000EB000700E4000600DE000600D8000646
:100C100000D2000600CC000500C7000500C2000598
:100C200000BD000400B9000400B5000400B10004D8
:100C300000AD000400A9000400A5000300A2000309
:100C4000009F0004009B0003009800030095000231
:100C50000093000300900003008D0002008B00034E
:100C60000088000200860002008400030081000268
:100C7000007F0002007D0002007B0002007900027C
:100C8000007700010076000200740002007200018B
:100C900000710002006F0002006D0001006C000294
:100CA000006A00010069000200670001006600019F
:100CB00000650001006400020062000100610001A3
:100CC00000600001005F0002005D0001005C0001A7
:100CD000005B0001005A00010059000100580001AA
:100CE00000570001005600010055000100540001AA
:100CF00000530000005300010052000100510001A8
:100D000000500001004F0001004E0000004E0001A5
:100D1000004D0001004C0001004B0000004B0001A1
:100D2000004A00010049000100480000004800019D
:100D30000047000100460000004600010045000099
:100D40000045000100440001004300000043000191
:100D5000004200000042000100410000004100018B
:100D600000400001003F0000003F0001003E000085
:100D7000003E0001003D0000003D0001003C00007D
:100D8000003C0000003C0001003B0000003B000173
:100D9000003A0000003A000100390000003900016B
:100DA0000038000000380000003800010037000063
:100DB0000037000100360000003600000036000158
:100DC000003500000035000000350001003400004F
:100DD0000034000000340001003300000033000044
:100DE0000033000100320000003200000032000138
:100DF000003100000031000000310001003000002F
:100E00000030000000300001002F0000002F000023
:100E1000002F0000002F0001002E0000002E000017
:100E2000002E0001002D0000002D0000002D00000C
:100E3000002D0001002C0000002C0000002C000000
:100E4000002C0001002B0000002B0000002B0000F4
:100E5000002B0001002A0000002A0000002A0000E8
:100E6000002A0001002900000029000000290000DC
:100E700000290000002900010028000000280000CF
:100E800000280000002800000028000100270000C2
:100E900000270000002700000027000000270001B5
:100EA00000260000002600000026000000260000AA
:100EB000002600010025000000250000002500009C
:100EC000002500000025000000250001002400008E
:100ED0000024000000240000002400000024000181
:100EE0000023000000230000002300000023000076
:100EF0000023000000230000002300010022000066
:100F00000022000000220000002200000022000059
:100F1000002200010021000000210000002100004B
:100F2000002100000021000000210000002100013C
:100F30000020000000200000002000000020000031
:100F40000020000000200000002000000020000120
:100F5000001F0000001F0000001F0000001F000015
:100F6000001F0000001F0000001F0001001E000005
:100F7000001E0000001E0000001E00000024F4D42B
:100F80003050C38E20C2A24017828B7011127A910A
:100F90000D816CD90AA861E108C758660761514301
:100FA000061E4B5D05C145A7041A411104093D9871
:100FB00003713931034036DB0265339102D430547A
:100FC00002802E1D02632CEE01752AC501B028A0F7
:100FD00001102781018F2564012B244B01E022346D
:100FE00001AC211F018D200D01801FFC00841EED2E
:100FF00000971DDF00B81CD200E61BC600201BBCFA
:1010000000641AB200B219A8000A19A0006A18995F
:1010100000D117910040178B00B516840031167E61
:1010200000B31579003A157300C7146F0058146A9D
:1010300000EE1366008813630025135E00C7125B81
:10104000006C12570015125400C111510070114F5D
:101050000021114B00D61049008D10470046104466
:101060000002104200C00F4000800F3E00420F3CC3
:1010700000060F3B00CB0E3800930E37005C0E3598
:1010800000270E3400F30D3200C10D3100900D30F9
:1010900000600D2E00320D2D00050D2C00D90C2BFB
:1010A00000AE0C2900850C29005C0C2700350C27AC
:1010B000000E0C2600E80B2400C40B2400A00B2318
:1010C000007D0B23005A0B2100390B2100180B2047
:1010D00000F80A1F00D90A1E00BB0A1E009D0A1D47
:1010E00000800A1D00630A1C00470A1B002C0A1B13
:1010F00000110A1A00F7091A00DD091900C40919BC
:1011000000AB091900920917007B09180063091741
:10111000004C09160036091600200916000A0915A8
:1011200000F5081500E0081400CC081400B80814F5
:1011300000A4081400900813007D0812006B081327
:101140000058081200460812003408110023081144
:10115000001208110001081100F0071000E007104C
:1011600000D0071000C0071000B0070F00A1071043
:101170000091070E0083070F0074070F0065070E2C
:101180000057070E0049070E003B070D002E070E03
:101190000020070D0013070D0006070D00F9060CCF
:1011A00000ED060D00E0060C00D4060C00C8060C8D
:1011B00000BC060C00B0060C00A4060B0099060C3F
:1011C000008D060B0082060B0077060B006C060BE9
:1011D0000061060A0057060B004C060A0042060A88
:1011E0000038060A002E060A0024060A001A060A1B
:1011F000001006090007060A00FD050900F40509AC
:1012000000EB050900E2050900D9050900D0050930
:1012100000C7050900BE050900B5050800AD0508B1
:1012200000A50509009C050800940508008C050828
:1012300000840508007C050800740508006C05079B
:1012400000650508005D050700560508004E050706
:10125000004705070040050800380507003105076D
:10126000002A050700230507001C050600160507D0
:10127000000F0507000805060002050700FB04062D
:1012800000F5040700EE040600E8040600E2040787
:1012900000DB040600D5040600CF040600C90406DE
:1012A00000C3040600BD040600B7040600B104052F
:1012B00000AC040600A6040600A00405009B04067A
:1012C0000095040500900406008A040500850405C5
:1012D00000800406007A040500750405007004050A
:1012E000006B04050066040500610405005C04054C
:1012F0000057040500520405004D0405004804058C
:1013000000430405003E0404003A040500350405CA
:1013100000300404002C0405002704040023040505
:10132000001E0404001A040400160405001104043D
:10133000000D040400090405000404040000040472
:1013400000FC030400F8030400F4030400F00304A9
:1013500000EC030400E8030400E4030400E00304D9
:1013600000DC030400D8030400D4030400D0030409
:1013700000CC030400C8030300C5030300656368D1
:101380006F3A00205A3A0020593A0020583A006536
:101390006E6473746F7073206869743A2000000083
:1013A0002100240027002A00000022002500280038
:1013B0002B00000020002300260029000202020268
:1013C00002020202040404040404040403030303E9
:1013D00003030303010101010101010101020408EA
:1013E00010204080010204081020408001020408FF
:1013F00010204080804020100804020100000001FD
:1014000002000000000000000403070600000000C6
:10141000000000000000000000000000494E4649A6
:101420004E4954594E414ECDCCCC3D0AD7233C17A2
:10143000B7D13877CC2B329595E6241FB14F0A00EF
:101440000020410000C84200401C4620BCBE4CCADF
:101450001B0E5AAEC59D7400C90C1C2F37723C720E
:1014600011241FBECFEFD0E4DEBFCDBF14E0A0E05B
:10147000B1E0E8E3FBE201E00BBF02C007900D9290
:10148000A830B107D9F713E1A8E0B4E001C01D927C
:10149000AF3EB107E1F714E1CEE5D4E100E006C0CC
:1014A00022970109FE010BBF0E94048EC835D107A7
:1014B00080E00807A9F70E94F3870C948A950C94A2
:1014C00000001F920F920FB60F920BB60F921124CD
:1014D0002F933F934F935F936F938F939F93EF93CC
:1014E000FF936091C6002091880430918904C9015E
:1014F00001968F77907040918A0450918B048417E5
:10150000950741F0285F3B4FF90160839093890470
:1015100080938804FF91EF919F918F916F915F91DC
:101520004F913F912F910F900BBE0F900FBE0F90D8
:101530001F9018959A01AB01203081EE380780E0AA
:10154000480780E0580749F182E08093C00060E0DE
:1015500079E08DE390E00E94D58D215030404040ED
:101560005040CA01B90122E030E040E050E00E9462
:10157000D58D3093C5002093C4008091C100806157
:101580008093C1008091C10088608093C1008091E8
:10159000C10080688093C10008951092C00020E1CE
:1015A00030E0E7CF80918A0490918B0420918804E9
:1015B000309189042817390731F0885F9B4FFC016F
:1015C000208130E002C02FEF3FEFC90108958091E4
:1015D0008A0490918B042091880430918904281703
:1015E000390769F0FC01E85FFB4F208101968F7796
:1015F000907090938B0480938A0430E002C02FEFA8
:101600003FEFC901089580918A0490918B049093D3
:1016100089048093880408956F927F928F929F929D
:10162000AF92BF92CF92DF92EF92FF920F931F93F0
:10163000DF93CF93CDB7DEB7A0970FB6F894DEBF98
:101640000FBECDBF5C01CB01BA01611571058105EB
:10165000910551F4C50140E350E060E070E020E006
:1016600030E00E94A60B48C06E010894C11CD11C3A
:10167000EE24FF248701622E772488249924A40174
:1016800093010E94B38DF60161936F010894E11CF0
:10169000F11C011D111DB901CA01611571058105FA
:1016A000910569F7D801C7010197A109B1096E0138
:1016B0000894C11CD11CC80ED91E19C0F601408166
:1016C0004A3010F4405D01C0495C552747FD5095F4
:1016D000652F752FC50120E030E00E94A60B08940D
:1016E000E108F108010911090894C108D108E114C1
:1016F000F1040105110511F7A0960FB6F894DEBFAD
:101700000FBECDBFCF91DF911F910F91FF90EF9052
:10171000DF90CF90BF90AF909F908F907F906F9011
:1017200008952115310539F48091C00085FFFCCF63
:101730004093C60008950E940C0B08959A01462F0D
:1017400050E060E070E00E94910B0895EF92FF92EC
:101750000F931F93CF93DF93EC017A018B01211537
:10176000310539F48091C00085FFFCCFE092C600BE
:101770001BC02A303105B1F477FF10C04DE250E0B4
:1017800060E070E020E030E00E94A60B109500952C
:10179000F094E094E11CF11C011D111DCE01B80173
:1017A000A7012AE00E940C0BDF91CF911F910F91AE
:1017B000FF90EF9008959A01FB01AF01662757FD56
:1017C0006095762F0E94A60B08959A01462F552703
:1017D00047FD5095652F752F0E94A60B0895CF9356
:1017E000DF93EC014DE050E060E070E020E030E09D
:1017F0000E94A60BCE014AE050E060E070E020E0DD
:1018000030E00E94A60BDF91CF910895CF93DF9334
:10181000EC019A01AB0160E070E00E94910BCE01F7
:101820000E94EF0BDF91CF9108959F92AF92BF92EC
:10183000CF92DF92EF92FF920F931F93CF93DF939C
:10184000EC017A018B01D22ECB01BA0120E030E00D
:10185000A9010E943D8987FF0DC0CE014DE250E0F5
:1018600060E070E020E030E00E94A60B17FB1095CE
:1018700017F91095CC2450E040E030E02FE311C080
:10188000DA01F9016B2F742F8F2F922F20E030E0B7
:1018900040E251E40E944489562F472F382F292FC8
:1018A000C394CD1468F3C801B701DA01F9012B2FF5
:1018B000342F4F2F5E2F0E9464885B01E82E192F72
:1018C0007B2D0E94E289062FF72EC82E992E0E94AA
:1018D0000E8A9B01AC016A2D7B2D8E2D912F0E94CB
:1018E00063885B01E82E192FCE01402F5F2D6C2DF0
:1018F000792D2AE030E00E94910BDD20C9F1E0E073
:10190000F1E006C09091C00095FFFCCF8093C60027
:1019100081918823B9F72CC06A2D7B2D8E2D912FB4
:1019200020E030E040E251E40E94BB8CC62EB72E8E
:10193000A82E992E0E94DD897B010027F7FC0095D7
:10194000102FCE01B801A7012AE030E00E94A60BBB
:10195000C801B7010E94108A9B01AC016C2D7B2D40
:101960008A2D992D0E9463885B01E82E192FDA9445
:10197000DD2091F6DF91CF911F910F91FF90EF90B5
:10198000DF90CF90BF90AF909F9008950E94150C6C
:10199000089508956091350370913603882777FD87
:1019A0008095982F0E94108A209131033091320344
:1019B00040913303509134030E9444896093B204F0
:1019C0007093B3048093B4049093B5040895FC011C
:1019D000E756FB4F808190E008958F929F92AF92DF
:1019E000BF92CF92DF92EF92FF920F931F93CF930C
:1019F000DF93EB014A0189019C01B901882777FD3A
:101A00008095982F0E94108A23E333E948E853E435
:101A10000E9464889B01AC01688179818A819B81E5
:101A20000E9444890E94B189F8012081318142815C
:101A300053810E94BB8C7B01182F092F98017F2DA9
:101A4000832F922F20E03CEF4FE756E40E94BB8C9F
:101A50005B016C0198016E2D7F2D832F922FF40175
:101A600020813181428153810E9464889B01AC01B5
:101A7000C601B5010E94448920E030E040E05FE308
:101A80000E9464880E94DD892FEF3FE3261B370BFD
:101A9000C901DF91CF911F910F91FF90EF90DF90DF
:101AA000CF90BF90AF909F908F9008956F927F924C
:101AB0008F929F92AF92BF92CF92DF92EF92FF925E
:101AC0000F931F93CF93DF933B01EA0149016FEF1F
:101AD0007FE3681B790B882777FD8095982F0E94FC
:101AE000108A7B018C017F2D912F288139814A81B9
:101AF0005B810E94BB8C5B016C0160E07CEF8FE737
:101B000096E42E2D3F2D402F512F0E9463889B017C
:101B1000AC01C601B5010E944489F40120813181E4
:101B2000428153810E9444890E94188C9B01AC0120
:101B3000F30160817181828193810E94448923E352
:101B400033E948E853E40E946388DF91CF911F9105
:101B50000F91FF90EF90DF90CF90BF90AF909F904C
:101B60008F907F906F9008950F931F93DF93CF9383
:101B7000CDB7DEB728970FB6F894DEBF0FBECDBF46
:101B80008C016091210370912203882777FD809555
:101B9000982F0E94108A69837A838B839C8360913B
:101BA000230370912403882777FD8095982F0E9446
:101BB000108A6D837E838F839887C801BE016F5F13
:101BC0007F4FAE014B5F5F4F29E233E00E94ED0C87
:101BD00028960FB6F894DEBF0FBECDBFCF91DF9130
:101BE0001F910F9108950F931F93DF93CF93CDB75C
:101BF000DEB728970FB6F894DEBF0FBECDBF8C01BD
:101C00006091210370912203882777FD8095982F9A
:101C10000E94108A69837A838B839C83609123035B
:101C200070912403882777FD8095982F0E94108A51
:101C30006D837E838F839887C801BE016F5F7F4F5E
:101C4000AE014B5F5F4F29E233E00E94560D2896AC
:101C50000FB6F894DEBF0FBECDBFCF91DF911F91BD
:101C60000F9108952F923F924F925F926F927F92C1
:101C70008F929F92AF92BF92CF92DF92EF92FF929C
:101C80000F931F93DF93CF9300D000D000D0CDB738
:101C9000DEB780919A04882309F4D0C18FB7F894F5
:101CA00010929A048FBF20919104309192043E8348
:101CB0002D83C90160E00E94F30D1B012C0160918E
:101CC0009504709196048091970490919804A201D4
:101CD00091010E946388162F072FF82EE92EA80184
:101CE0009701852F942FA32FB22F8093B804909340
:101CF000B904A093BA04B093BB04652F742F832F4B
:101D0000922F20E030E046E153E40E94718B1816D8
:101D10000CF42DC1A8019701652F742F832F922FEA
:101D200020E030E046E153EC0E943D8987FD1BC175
:101D30008091BC04882309F008C1A8019701652F90
:101D4000702F832F9E2D20912D0330912E034091D3
:101D50002F03509130030E94BB8C69837A838B835D
:101D60009C83472F382F292F862F942FA32FB22FF4
:101D70008093C1049093C204A093C304B093C4049D
:101D8000A8019701652F702F832F9E2D2091BD04F0
:101D90003091BE044091BF045091C0040E946488F9
:101DA000D62EC72EB82EA92EE090AE04F090AF0428
:101DB0000091B0041091B104A6019501652F742F14
:101DC000832F922F2E2D3F2D402F512F0E943D8982
:101DD00087FF9FC08E2D9F2DA02FB12F8093BD0414
:101DE0009093BE04A093BF04B093C0046E2D7F2DCA
:101DF000802F912F20913103309132034091330392
:101E0000509134030E94BB8C7B01082FB92E862F82
:101E10009F2DA02FBB2D8093C5049093C604A09343
:101E2000C704B093C804C201B1012091C904309124
:101E3000CA044091CB045091CC040E946388209145
:101E40003703309138034091390350913A030E948F
:101E5000BB8C20ED3CEC4CE45DE30E94BB8C3B0171
:101E60004C016091CD047091CE048091CF0490918B
:101E7000D00423E333E343E75FE30E94BB8C9B0181
:101E8000AC01C401B3010E946488162FD72EC82E5E
:101E9000A92E862F9D2DAC2DBA2D8093CD04909325
:101EA000CE04A093CF04B093D0042092C904309202
:101EB000CA044092CB045092CC0459814A813B81A0
:101EC0002C81652F742F832F922F2E2D3F2D402F85
:101ED0005B2D0E946488212F3D2D4C2D5A2D0E9490
:101EE00063887B018C017F2D912F20E030E0A901D8
:101EF0000E943D8987FD43C06E2D7F2D802F912F3D
:101F000020E030E04FE753E40E94718B1816DCF5B7
:101F100031C0E090B204F090B3040091B404109189
:101F2000B504A6019501652F742F832F922F2E2DB6
:101F30003F2D402F512F0E94718B18160CF44ACF61
:101F4000ED2CFC2C0B2D1A2D45CF80E090E0DC0110
:101F50008093BD049093BE04A093BF04B093C004CB
:101F60001092BC04EACE81E08093BC0408C081E0FA
:101F70008093BC04EE24FF240FE713E404C0EE2496
:101F8000FF2400E010E080913D0390913E03ED813D
:101F9000FE818E179F071CF01092990413C0809148
:101FA0003B0390913C032D813E8128173907A4F70C
:101FB0006E2D7F2D802F912F0E94DD89759567955D
:101FC000609399040E9450872091D1043091D204EB
:101FD0004091D3045091D404621B730B840B950B76
:101FE000683833E1730730E0830730E0930730F15E
:101FF0000E9450876093D1047093D2048093D304DD
:102000009093D40480919304909194042091B60409
:102010003091B7042817390784F420913F03309199
:102020004003821793074CF420918F043091900461
:102030008217930714F45C9A01C05C9826960FB639
:10204000F894DEBF0FBECDBFCF91DF911F910F91EE
:10205000FF90EF90DF90CF90BF90AF909F908F90C8
:102060007F906F905F904F903F902F9008950F93C7
:102070001F93DF93CF93CDB7DEB728970FB6F894B1
:10208000DEBF0FBECDBF8C016091150370911603AA
:10209000882777FD8095982F0E94108A69837A831C
:1020A0008B839C836091170370911803882777FDB9
:1020B0008095982F0E94108A6D837E838F839887E6
:1020C000C801BE016F5F7F4FAE014B5F5F4F2DE1D7
:1020D00033E00E94ED0C28960FB6F894DEBF0FBED9
:1020E000CDBFCF91DF911F910F9108950F931F9353
:1020F000DF93CF93CDB7DEB728970FB6F894DEBF46
:102100000FBECDBF8C016091150370911603882717
:1021100077FD8095982F0E94108A69837A838B833C
:102120009C836091170370911803882777FD809531
:10213000982F0E94108A6D837E838F839887C801B1
:10214000BE016F5F7F4FAE014B5F5F4F2DE133E00C
:102150000E94560D28960FB6F894DEBF0FBECDBF75
:10216000CF91DF911F910F91089580E090E0DC0105
:102170008093AE049093AF04A093B004B093B104E5
:102180006091350370913603882777FD8095982FED
:102190000E94108A20913103309132034091330321
:1021A000509134030E9444896093B2047093B30445
:1021B0008093B4049093B504559A549A249A87ED69
:1021C00080937A00EEE7F0E010828081806880835F
:1021D00080818064808380E888BDEEE6F0E08081C5
:1021E000846080836AEF70E080E090E00E948487E2
:1021F00081E090E060E00E94B40D90933E038093F4
:102200003D038FE891E060E00E94B40D90933C03A1
:1022100080933B0381E090E00E9437109093B704D5
:102220008093B60486E990E00E94371090934003B3
:1022300080933F03089580E090E060E00E94B40D39
:1022400090938E0480938D0480E090E0DC01809375
:10225000950490939604A0939704B093980480E01B
:1022600090E00E9437109093900480938F04109216
:102270008E0410928D04109299045D98109290042F
:1022800010928F045C9808952F923F924F925F9224
:102290006F927F928F929F92AF92BF92CF92DF9276
:1022A000EF92FF920F931F93DF93CF93CDB7DEB7DB
:1022B000AD970FB6F894DEBF0FBECDBF6C877D879C
:1022C0008E879F870E945087688B798B8A8B9B8B28
:1022D000E2E0F1E006C09091C00095FFFCCF809352
:1022E000C60081918823B9F78091C00085FFFCCF9B
:1022F0008AE08093C6000E941B118FE780939904A7
:10230000E888F9880A891B89E886F9860A871B8785
:10231000EC82FD820E831F833FE7A32EB12CC12CDC
:10232000D12C9924939420E030E0E3EDF2E0F49096
:10233000F8A2EEECF2E0049109A3E7ECF2E01491CC
:102340001AA3E0ECF2E044914BA3EAEBF2E05491E3
:102350005CA3E4EBF2E084918DA3E7EAF2E09491D0
:102360009EA3E1EAF2E0A491AFA3EBE9F2E0B4911D
:10237000B8A7E5E9F2E0E490E9A6E6E6F2E0F49039
:10238000FAA6E2E6F2E004910BA73DA72CA7809104
:102390009A04882309F4E9C28FB7F89410929A043A
:1023A0008FBF809191049091920460E00E94F30DA0
:1023B00069837A838B83292E5C894D893E892F8995
:1023C000652F742F832F922FB981AA811B812B2F08
:1023D0003A2F412F522D0E94718B18163CF0198113
:1023E0001C8B2A812D8B3B813E8B2F8A652D762D70
:1023F000872D982DB981AA811B812B2F3A2F412F30
:10240000522D0E943D8987FD04C059806A80712E3B
:10241000822C992009F445C059814A813B81652F5E
:10242000742F832F922DBC85AD851E850F852B2F94
:102430003A2F412F502F0E94718B18160CF095C225
:102440000E945087E884F9840A851B856E197F09EC
:10245000800B910B693803E1700700E0800700E012
:10246000900708F482C2109299040E9450876C83EE
:102470007D838E839F839B01AC0188859985AA8586
:10248000BB85281B390B4A0B5B0B2C8F3D8F4E8F66
:102490005F8F9C859C8BAD85AD8BBE85BE8BEF859C
:1024A000EF8B59814A813B81652F742F832F922DA9
:1024B000BC85AD851E850F852B2F3A2F412F502FC0
:1024C0000E943D8987FF50C20E945087EC80FD80AA
:1024D0000E811F816E197F09800B910B693803E112
:1024E000700700E0800700E0900708F43DC20E94FA
:1024F0005087688779878A879B872CA53DA52115FA
:10250000310509F422C2DC01CB01EC80FD800E8193
:102510001F818E199F09A00BB10B0C8D1D8D2E8D67
:102520003F8D080F191F2A1F3B1F088F198F2A8FF5
:102530003B8F2C8D3D8D4E8D5F8D281B390B4A0BAB
:102540005B0BCA01B901A60195010E94818D288DFE
:10255000398D4A8D5B8D0E94D58D2A0D3B1D4C1DFA
:102560005D1D243131054105510574F059016A01A1
:102570003AE6A316B104C104D1045CF029E6A22E08
:10258000B12CC12CD12C05C094E1A92EB12CC12CA9
:10259000D12C88A1E3EDF2E02CA53DA508C09091D7
:1025A000C00095FFFCCF8093C600319684918823AC
:1025B000B1F73DA72CA78CE894E0B601A5012AE06D
:1025C00030E00E94A60B89A1EEECF2E02CA53DA51F
:1025D00008C09091C00095FFFCCF8093C600319653
:1025E00084918823B1F73DA72CA78CE894E0B6012D
:1025F000A5012AE030E00E94A60B8AA1E7ECF2E0F8
:102600002CA53DA508C09091C00095FFFCCF8093FC
:10261000C600319684918823B1F73DA72CA78CE89A
:1026200094E0452D562D672D782D23E030E00E9453
:10263000C60C8BA1E0ECF2E02CA53DA508C0909162
:10264000C00095FFFCCF8093C6003196849188230B
:10265000B1F73DA72CA78CE894E0FC89ED893E8971
:102660002F894F2F5E2F632F722F23E030E00E94BF
:10267000C60C2CA53DA58091C00085FFFCCF3DA7D1
:102680002CA78AE08093C600233031050CF45DC18D
:10269000C601B5010E94108A20E030E040E850E415
:1026A0000E94BB8C7B018C015C894D893E892F89FE
:1026B000652F742F832F922F252D362D472D582DC2
:1026C0000E94638820ED3FE049E450E40E94BB8C07
:1026D00020E030E040E05FE30E94BB8C9B01AC0156
:1026E000C801B7010E944489162F072FF82EE92E42
:1026F000688D798D8A8D9B8D0E94108A20E030E054
:102700004AE754E40E944489962E872E782E692E3B
:102710008CA1EAEBF2E02CA53DA508C09091C00089
:1027200095FFFCCF8093C600319684918823B1F742
:102730003DA72CA78CE894E0F80197014F2F502F6C
:10274000632F7E2D23E030E00E94C60C8DA1E4EBC8
:10275000F2E02CA53DA508C09091C00095FFFCCFEC
:102760008093C600319684918823B1F73DA72CA7AA
:102770008CE894E0F40193014F2F582D632F762DB0
:1027800023E030E00E94C60C2CA53DA58091C0003E
:1027900085FFFCCF3DA72CA78AE08093C600A80147
:1027A0009701652F702F832F9E2D2AE939E949E182
:1027B0005FE30E94BB8C162F072FF82EE92EA8018D
:1027C0009701652F742F832F922FD801F7012B2F9C
:1027D0003A2F4F2F5E2F0E946488D401F3012B2FD4
:1027E000382D4F2F562D0E944489562E472E382EB5
:1027F000988FA8019701652F742F832F922FD401F2
:10280000F3012B2F382D4F2F562D0E94BB8C20E02B
:1028100030E040E05EE30E94BB8C962E872E782E3F
:10282000692E8EA1E7EAF2E02CA53DA508C09091A3
:10283000C00095FFFCCF8093C60031968491882319
:10284000B1F78091C00085FFFCCF3DA72CA78AE09F
:102850008093C6008FA1E1EAF2E02CA53DA508C057
:102860009091C00095FFFCCF8093C6003196849173
:102870008823B1F73DA72CA78CE894E0F8019701D5
:102880004F2F502F632F7E2D23E030E00E94C60C87
:102890002CA53DA58091C00085FFFCCF3DA72CA7AE
:1028A0008AE08093C60088A5EBE9F2E02CA53DA55F
:1028B00008C09091C00095FFFCCF8093C600319670
:1028C00084918823B1F73DA72CA78CE894E0F2010E
:1028D000288D4F2F542D632D722F23E030E00E945E
:1028E000C60C2CA53DA58091C00085FFFCCF3DA75F
:1028F0002CA78AE08093C60089A5E5E9F2E02CA523
:102900003DA508C09091C00095FFFCCF8093C60004
:10291000319684918823B1F73DA72CA78CE894E0E9
:10292000F40193014F2F582D632F762D23E030E0D3
:102930000E94C60C2CA53DA58091C00085FFFCCF50
:102940003DA72CA78AE08093C600A09299044CA5CD
:102950005DA54F5F5F4F5DA74CA75C846D847E844F
:102960008F849924939401C099245C854D853E857C
:102970002F85652F742F832F922F20E030E040EABF
:1029800051E40E9464889B01AC01B981AA811B813A
:102990006B2F7A2F812F922D0E94718B181694F431
:1029A000ECE6F2E007C09091C00095FFFCCF809369
:1029B000C600319684918823B1F78091C00085FFCD
:1029C000FCCFB3C00E945087E888F9880A891B8928
:1029D0006E197F09800B910B613D07E0700700E0E5
:1029E000800700E0900708F44DC00E945087688B74
:1029F000798B8A8B9B8B8AA5E6E6F2E02CA53DA518
:102A000008C09091C00095FFFCCF8093C60031961E
:102A100084918823B1F73DA72CA7809191049091D0
:102A2000920460E00E94F30DAB01BC018CE894E0DD
:102A300023E030E00E94C60C8BA5E2E6F2E02CA574
:102A40003DA508C09091C00095FFFCCF8093C600C3
:102A5000319684918823B1F73DA72CA76091990402
:102A60008CE894E070E04AE050E00E94DB0B2CA57B
:102A70003DA58091C00085FFFCCF3DA72CA78AE033
:102A80008093C6000E945087688F798F8A8F9B8FB2
:102A90000E9450879B01AC01888D998DAA8DBB8DBA
:102AA000E884F9840A851B858E199F09A00BB10B58
:102AB000EC80FD800E811F818E199F09A00BB10B48
:102AC000820F931FA41FB51F81380FE4900702E106
:102AD000A00700E0B00790F0E5E4F2E007C09091B5
:102AE000C00095FFFCCF8093C60031968491882367
:102AF000B1F78091C00085FFFCCF17C02CA53DA584
:102B0000263031050CF443CCE4EFF1E007C090919E
:102B1000C00095FFFCCF8093C60031968491882336
:102B2000B1F78091C00085FFFCCF8AE08093C6009A
:102B3000AD960FB6F894DEBF0FBECDBFCF91DF913B
:102B40001F910F91FF90EF90DF90CF90BF90AF90CB
:102B50009F908F907F906F905F904F903F902F90BD
:102B60000895DF93CF930F92CDB7DEB789830E948C
:102B70001B110E94E9546981882379F5E9E5F1E0A8
:102B800007C09091C00095FFFCCF8093C60031969E
:102B900084918823B1F78CE894E070E04AE050E03B
:102BA0000E94DB0B8091C00085FFFCCF8AE0809300
:102BB000C600E7ECF1E007C09091C00095FFFCCFA4
:102BC0008093C600319684918823B1F78091C0002C
:102BD00085FFFCCF8AE08093C6000F90CF91DF91F4
:102BE0000895DF93CF930F92CDB7DEB789830E940C
:102BF0001B110E94E9546981882379F5E9E5F1E028
:102C000007C09091C00095FFFCCF8093C60031961D
:102C100084918823B1F78CE894E070E04AE050E0BA
:102C20000E94DB0B8091C00085FFFCCF8AE080937F
:102C3000C600EAE9F1E007C09091C00095FFFCCF23
:102C40008093C600319684918823B1F78091C000AB
:102C500085FFFCCF8AE08093C6000F90CF91DF9173
:102C600008955C980E94E954882309F5E9E5F1E0AC
:102C700007C09091C00095FFFCCF8093C6003196AD
:102C800084918823B1F7E0E6F1E007C09091C0009D
:102C900095FFFCCF8093C600319684918823B1F7CD
:102CA0008091C00085FFFCCF8AE08093C600089524
:102CB0001F920F920FB60F920BB60F9211242F9303
:102CC0003F934F935F936F937F938F939F93AF93B4
:102CD000BF93EF93FF9380914103882331F4909148
:102CE000990490939B0491115D9A90919B0489178C
:102CF00008F05D988F5F8F778093410380919C04EB
:102D0000833009F448C0843028F48130E1F0823007
:102D1000C0F50DC0853009F45CC0853008F457C09B
:102D2000863009F458C0873009F05EC056C0109252
:102D30007B0087E480937C0080917A00806480939C
:102D40007A0081E01BC0209178003091790040E04A
:102D500050E08091A9049091AA04A091AB04B09195
:102D6000AC04820F931FA41FB51F8093A9049093F6
:102D7000AA04A093AB04B093AC0482E080939C04BB
:102D800033C086E480937C0080917A0080648093D5
:102D90007A0083E0F3CF209178003091790040E011
:102DA00050E080919D0490919E04A0919F04B09169
:102DB000A004820F931FA41FB51F80939D049093BE
:102DC0009E04A0939F04B093A00484E0D7CF85E035
:102DD000D5CF86E0D3CF87E0D1CF10929C048091ED
:102DE000AD048F5F8093AD048091AD04803108F411
:102DF00074C02FEF3FE38091A9049091AA04A90128
:102E0000481B590BCA01509392044093910440917E
:102E10009D0450919E04241B350B30939404209301
:102E2000930421E020939A041092AD041092A90417
:102E30001092AA041092AB041092AC041092A50454
:102E40001092A6041092A7041092A8041092A10454
:102E50001092A2041092A3041092A40410929D0454
:102E600010929E0410929F041092A00420913B03A4
:102E700030913C03821793074CF010928E0410920D
:102E80008D0480E00E94B1150E94AE5420919104FF
:102E90003091920480913D0390913E0382179307F5
:102EA0004CF010928E0410928D0480E00E94F11577
:102EB0000E94AE54209193043091940480913F037A
:102EC000909140032817390744F010929004109213
:102ED0008F040E9431160E94AE54FF91EF91BF9172
:102EE000AF919F918F917F916F915F914F913F91A2
:102EF0002F910F900BBE0F900FBE0F901F90189543
:102F00000F931F93CF93DF93EC018B0141E00E945D
:102F10008E32882331F4CE01B80140E00E948E3217
:102F200001C081E0DF91CF911F910F910895FC01C5
:102F30002381222311F00E944226089540E050E0B0
:102F4000BA010E944B25089522E034E0FC01219350
:102F50003193CF010E9497170895CF93DF93FC011F
:102F6000DC01AB5EBB4F1C92DC01A85EBB4F1C9228
:102F7000DC01AD5EBB4F82E094E08D939C93DF015A
:102F8000AC5CBB4F1C92DF01A95CBB4F1C92DF0104
:102F9000AE5CBB4F8D939C93DF01AF5ABB4F1C922D
:102FA000DF01AC5ABB4F1C92DF01A15BBB4F8D937D
:102FB0009C93DF01A259BB4F1C92DF01AF58BB4F5E
:102FC0001C92DF01A459BB4F8D939C93DF01A65740
:102FD000BB4F29E12C93DF01A357BB4F1C92DF01AC
:102FE000AB55BB4F1C92DF01A255BB4F1C92DF01BA
:102FF000AF54BB4F1C92DF01A455BB4F8D939C93E4
:10300000DF01A753BB4F1D921D921D921C92139777
:10301000DF01AF52BB4F1D921D921D921C92139760
:10302000118212821082EF01C353DB4F1882198282
:103030001A821B82DF01AB52BB4F81E08C93118A55
:10304000108A0E94508768577C4E8F4F9F4F68832D
:1030500079838A839B83DF91CF910895A62FB72F21
:10306000E82FF92F20E03EE24C91403229F0283041
:1030700009F431934C9141932F5F11962B30A1F7B6
:10308000108208952F923F924F925F926F927F929B
:103090008F929F92AF92BF92CF92DF92EF92FF9268
:1030A0000F931F93DF93CF93CDB7DEB7C958D040AE
:1030B0000FB6F894DEBF0FBECDBF7C012B014A01D5
:1030C000CE57DF4F1882C258D04082E090E0880E81
:1030D000991E8E010E591F4FF7013396CB57DF4FC4
:1030E000F983E883C558D04026ED222E24E0322E05
:1030F0002E0C3F1CC70188529B4FCD57DF4F998341
:103100008883C358D0405E010894A11CB11C9EE086
:10311000C92ED12CCC0EDD1E85E4682E712C6C0ED0
:103120007D1EF3013296C957DF4FF983E883C758F4
:10313000D040EBE1F3E08491C757DF4F8883C95853
:10314000D04018C1F801438550E0CA0188719070E1
:103150008031910509F016C1F101208131812130C2
:10316000310509F40FC12230310509F40BC1C50145
:10317000B8010E942E181E86F2018081882329F44E
:10318000C60165E171E00E943492C601B2010E945D
:103190003492C601B5010E943492C60165E171E026
:1031A0000E9434921AA61DA682E094E099A788A7EF
:1031B000CE018A96B401A50121E00E947C288823D3
:1031C00009F03CC0F101808191810097B9F5C757A2
:1031D000DF4F8881C958D040EBE1F3E008C09091FF
:1031E000C00095FFFCCF8093C60031968491882360
:1031F000B1F7E7E1F1E006C09091C00095FFFCCF88
:103200008093C60081918823B9F78091C00085FF23
:10321000FCCFFAE0F093C600F50106C09091C00023
:1032200095FFFCCF8093C60081918823B9F78091E8
:10323000C00085FFFCCF8AE08093C600C957DF4FEE
:10324000A881B981C758D040FE01BA968BE10190A0
:103250000D928150E1F782E094E0F3019183808345
:10326000C701B601A3010E944218C3010E94A4171E
:10327000CE0188960E94A4177DC0253E09F47AC02D
:103280002E3209F477C02F3509F474C043FD72C0A3
:1032900021E08031910509F020E0F7012787222302
:1032A00049F4F8018085873409F064C081858E3740
:1032B00009F460C0CB57DF4F88819981C558D04051
:1032C000B8010E942E18F10180819181009719F5B3
:1032D000F20106C09091C00095FFFCCF8093C6001C
:1032E00081918823B9F7CB57DF4FE881F981C55821
:1032F000D04006C09091C00095FFFCCF8093C600DF
:1033000081918823B9F78091C00085FFFCCFFAE056
:10331000F093C6002FC08130910561F4CD57DF4F87
:10332000E881F981C358D0408081918101969183D1
:10333000808320C082309105E9F4CE57DF4FF881B9
:10334000C258D0402F2F30E0CD57DF4FE881F981B0
:10335000C358D0408081918128173907C1F0CE57DA
:10336000DF4FF881C258D040FF5FCE57DF4FF88360
:10337000C258D040C401B8010E94D92418160CF4D8
:10338000E1CE05C0F8012081222309F076CFC7578E
:10339000DF4F0FB6F894DEBF0FBECDBFCF91DF91E8
:1033A0001F910F91FF90EF90DF90CF90BF90AF9063
:1033B0009F908F907F906F905F904F903F902F9055
:1033C0000895EF92FF920F931F93DF93CF93CDB7A2
:1033D000DEB76D970FB6F894DEBF0FBECDBF8C0180
:1033E000FC01EA52FB4F1182108235E1E32E34E0FA
:1033F000F32EE80EF91EC7010E949E17DE011396F8
:10340000F7018BE101900D928150E1F782E094E0A9
:103410009A838983C8016AE271E08E010F5F1F4FB2
:10342000A8010E944218C8010E94A4176D960FB609
:10343000F894DEBF0FBECDBFCF91DF911F910F91EA
:10344000FF90EF900895EF92FF920F931F93CF9309
:10345000DF938C01FC011282E85EFB4F80818823A0
:1034600029F0C8018B5E9B4F0E94422649E8E42E5A
:1034700044E0F42EE00EF11EC70160E04FE10E942F
:1034800064808823F9F4EBE1F3E007C09091C00079
:1034900095FFFCCF8093C600319684918823B1F7C5
:1034A000E9E5F4E007C09091C00095FFFCCF809360
:1034B000C600319684918823B1F78091C00085FFC2
:1034C000FCCF70C0E801C257DB4FCE01B7010E94AC
:1034D00080178823F9F4E6E3F3E007C09091C00079
:1034E00095FFFCCF8093C600319684918823B1F775
:1034F000E6E4F4E007C09091C00095FFFCCF809314
:10350000C600319684918823B1F78091C00085FF71
:10351000FCCF48C0C8018B5E9B4FBE010E943B237D
:103520008823F9F4E6E3F3E007C09091C00095FF2B
:10353000FCCF8093C600319684918823B1F7E6E3EF
:10354000F4E007C09091C00095FFFCCF8093C600C7
:10355000319684918823B1F78091C00085FFFCCF1C
:1035600021C081E0F8018283EBE1F3E007C0909194
:10357000C00095FFFCCF8093C600319684918823CC
:10358000B1F7EBE2F4E007C09091C00095FFFCCFEB
:103590008093C600319684918823B1F78091C00052
:1035A00085FFFCCF8AE08093C600D801AC5CBB4F9E
:1035B000F801EB5EFB4F8BE101900D928150E1F73A
:1035C000F801E05DFB4F0D5E1B4F11830083DF911F
:1035D000CF911F910F91FF90EF900895FC01118200
:1035E00012820895FC018281882311F081E0818399
:1035F0000895FC0181818111118208952F923F92DB
:103600004F925F926F927F928F929F92AF92BF92F2
:10361000CF92DF92EF92FF920F931F93DF93CF939E
:10362000CDB7DEB7AB970FB6F894DEBF0FBECDBFF8
:103630007C014B014BA7FC018281882309F4C0C1A6
:103640005EEA452E54E0552E4E0C5F1CC2010E94CE
:103650004226F7011182188A1B8A82E094E09F8734
:103660008E878701005D1B4FC7018D5E9B4FF80160
:1036700091838083F40180818F3209F089C0C40175
:103680006FE270E00E943F926C010894C11CD11C53
:103690005E010894A11CB11C180175C0C6016FE23F
:1036A00070E00E943F923C01009709F47AC0C8166E
:1036B000D90608F076C08C010C191D09C501B601A8
:1036C000A8010E946892F501E00FF11F10828501A8
:1036D000F50106C09091C00095FFFCCF8093C60015
:1036E00081918823B9F78091C00085FFFCCFFAE073
:1036F000F093C600F101608171816115710519F0C7
:103700006E5F7F4F02C060E070E0CE014096A50181
:1037100021E00E947C28882359F5E7E1F4E007C006
:103720009091C00095FFFCCF8093C60031968491A4
:103730008823B1F706C09091C00095FFFCCF80931D
:10374000C600F80181918F018823A9F7E5E1F4E033
:1037500007C09091C00095FFFCCF8093C6003196C2
:1037600084918823B1F78091C00085FFFCCF21C1EF
:103770008EE090E08C0F9D1FF101918380836301A7
:103780000894C11CD11CC114D10409F087CF06C014
:10379000C7018E5C9B4FF80191838083082DC92C53
:1037A00002C00C2DCD2CF701E05DFB4F8BA58823CB
:1037B00009F4A2C0608171816115710519F06E5F15
:1037C0007F4F02C060E070E0C201402F5C2D21E01D
:1037D0000E947C28882309F463C0F701E753FB4F5C
:1037E000D701A154BB4F8D919D910D90BC91A02DFF
:1037F00080839183A283B383E8E0F4E007C09091D3
:10380000C00095FFFCCF8093C60031968491882339
:10381000B1F7802F9C2DFC0106C09091C00095FF50
:10382000FCCF8093C60081918823B9F7E1E0F4E0F2
:1038300007C09091C00095FFFCCF8093C6003196E1
:1038400084918823B1F7F701E753FB4F4081518101
:10385000628173818CE894E02AE030E00E94910B51
:103860008091C00085FFFCCF8AE08093C600F701FD
:10387000EF52FB4F1082118212821382E3EFF3E0CA
:1038800007C09091C00095FFFCCF8093C600319691
:1038900084918823B1F78091C00085FFFCCF89C057
:1038A000EFEDF3E007C09091C00095FFFCCF80934F
:1038B000C600319684918823B1F7802F9C2DFC019E
:1038C00006C09091C00095FFFCCF8093C600819107
:1038D0008823B9F7EDEDF3E007C09091C00095FFA4
:1038E000FCCF8093C600319684918823B1F78091F4
:1038F000C00085FFFCCF5DC06081718161157105DD
:1039000019F06E5F7F4F02C060E070E0C201402F8F
:103910005C2D26E50E947C28882361F5E9ECF3E024
:1039200007C09091C00095FFFCCF8093C6003196F0
:1039300084918823B1F7802F9C2DFC0106C09091C3
:10394000C00095FFFCCF8093C60081918823B9F712
:10395000E7ECF3E007C09091C00095FFFCCF8093A7
:10396000C600319684918823B1F78091C00085FF0D
:10397000FCCF1FC081E0F7018083E5EBF3E007C0D7
:103980009091C00095FFFCCF8093C6003196849142
:103990008823B1F7F40106C09091C00095FFFCCFD9
:1039A0008093C60081918823B9F78091C00085FF7C
:1039B000FCCF8AE08093C600CE010E960E94A41729
:1039C000AB960FB6F894DEBF0FBECDBFCF91DF919F
:1039D0001F910F91FF90EF90DF90CF90BF90AF902D
:1039E0009F908F907F906F905F904F903F902F901F
:1039F00008952F923F924F925F926F927F928F9293
:103A00009F92AF92BF92CF92DF92EF92FF920F936D
:103A10001F93DF93CF93CDB7DEB7AA970FB6F89475
:103A2000DEBF0FBECDBF6C013B01FC01828188234C
:103A300009F415C1C60182559B4F0E944226F6012A
:103A40001182188A1B8A82E094E09F878E87860104
:103A5000005D1B4FC6018D5E9B4FF80191838083F3
:103A6000F30180818F3209F08AC0C3016FE270E0F8
:103A70000E943F927C010894E11CF11C5E010894B5
:103A8000A11CB11C28016EE0262E312C2C0E3D1EEF
:103A900071C0C7016FE270E00E943F924C01009735
:103AA00009F476C0E816F90608F072C08C010E1908
:103AB0001F09C501B701A8010E946892F501E00F36
:103AC000F11F10828501F50106C09091C00095FF9D
:103AD000FCCF8093C60081918823B9F78091C00004
:103AE00085FFFCCFFAE0F093C600F201608171819E
:103AF0006115710519F06E5F7F4F02C060E070E0E4
:103B0000CE014096A50121E00E947C28882359F52A
:103B1000E1EAF3E007C09091C00095FFFCCF8093ED
:103B2000C600319684918823B1F706C09091C000F9
:103B300095FFFCCF8093C600F80181918F01882307
:103B4000A9F7EFE9F3E007C09091C00095FFFCCF23
:103B50008093C600319684918823B1F78091C0008C
:103B600085FFFCCF75C0F201318220827401089478
:103B7000E11CF11CE114F10409F08BCF06C0C60171
:103B80008E5C9B4FF80191838083062DE72C02C049
:103B90000E2DEF2CF601E05DFB4F808191810097A7
:103BA00011F0029602C080E090E0602F7E2D0E940E
:103BB0004729882311F1E1E9F3E007C09091C000A3
:103BC00095FFFCCF8093C600319684918823B1F78E
:103BD000802F9E2DFC0106C09091C00095FFFCCF68
:103BE0008093C60081918823B9F7F601EF52FB4F0D
:103BF00010821182128213822EC0E9E7F3E007C01F
:103C00009091C00095FFFCCF8093C60031968491BF
:103C10008823B1F7802F9E2DFC0106C09091C00033
:103C200095FFFCCF8093C60081918823B9F7E7E721
:103C3000F3E007C09091C00095FFFCCF8093C600D1
:103C4000319684918823B1F78091C00085FFFCCF25
:103C50008AE08093C600CE010E960E94A417AA9611
:103C60000FB6F894DEBF0FBECDBFCF91DF911F918D
:103C70000F91FF90EF90DF90CF90BF90AF909F900B
:103C80008F907F906F905F904F903F902F9008950E
:103C9000CF93DF93EC018A818823C1F1E5E6F3E05D
:103CA00007C09091C00095FFFCCF8093C60031966D
:103CB00084918823B1F7FE01EF52FB4F408151817F
:103CC000628173818CE894E02AE030E00E94910BDD
:103CD000E3E6F3E007C09091C00095FFFCCF80932E
:103CE000C600319684918823B1F7C753DB4F4881D2
:103CF00059816A817B818CE894E02AE030E00E945F
:103D0000910B8091C00085FFFCCF11C0E3E5F3E08B
:103D100007C09091C00095FFFCCF8093C6003196FC
:103D200084918823B1F78091C00085FFFCCF8AE0A1
:103D30008093C600DF91CF910895CF92DF92EF92EA
:103D4000FF920F931F93CF93DF936C018B01EB01D5
:103D500009900020E9F72197C61BD70BFC01E2551B
:103D6000FB4F1082CB016EE470E00E943F927C0119
:103D7000009721F42197C00FD11F0EC060E270E0C0
:103D80000E943F928C010F5F1F4FC7016AE270E0F3
:103D90000E943F92EC0121978DE089838AE08A831B
:103DA0001B82C60184559B4FB8010E944172F601E7
:103DB000E255FB4F8081882309F1E6E3F3E007C079
:103DC0009091C00095FFFCCF8093C60031968491FE
:103DD0008823B1F7EDE3F3E007C09091C00095FFB1
:103DE000FCCF8093C600319684918823B1F78091EF
:103DF000C00085FFFCCF8AE08093C600DF91CF91A1
:103E00001F910F91FF90EF90DF90CF9008953F9218
:103E10004F925F926F927F928F929F92AF92BF92DA
:103E2000CF92DF92EF92FF920F931F93DF93CF9386
:103E3000CDB7DEB7CC55D0400FB6F894DEBF0FBE7D
:103E4000CDBF8C016623B1F4FC01EB52FB4F8081A6
:103E5000882309F4DFC0F801E353FB4FC080D18011
:103E6000E280F3800E945087C616D706E806F9065E
:103E700008F4D0C0F801EB52FB4F1082D801129623
:103E80008C911297882341F4C8010E94231AF801EB
:103E90008281882309F4BEC000D000D000D0EDB7E5
:103EA000FEB731967E010894E11CF11CADB7BEB798
:103EB0001296FC92EE9211978BE291E093838283AB
:103EC000D80150968D919C915197958384830E943F
:103ED0009192EDB7FEB736960FB6F894FEBF0FBEBF
:103EE000EDBFCC24DD2457010AC0D7018C9199275E
:103EF00087FD90950E94FE91F70181937F01C60195
:103F0000F50101900020E9F73197EA19FB090894BF
:103F1000C11CD11C8E179F0744F3F5E16F2EF4E00E
:103F20007F2E600E711EC3010E949E173324EDE3A5
:103F3000AE2EB12CAC0EBD1E4E010894811C911CFE
:103F40007FE1472E512C4C0E5D1E48C0D7018C914D
:103F500090E00E94FE91F70181937F01C601F50177
:103F600001900020E9F73197EA19FB090894C11C78
:103F7000D11C8E179F0754F327968FAD27978E3746
:103F800069F1C501B40145E050E00E945A920097E2
:103F900029F500D000D000D0EDB7FEB73196ADB70F
:103FA000BEB712965C924E92119784E391E0938390
:103FB0008283958284820E949192ADB7BEB7169695
:103FC0000FB6F894BEBF0FBEADBFC2010E94A04A9B
:103FD0008BE391E00E94A04A33243394C301B501DE
:103FE0000E94D924181624F47501CC24DD24B6CF00
:103FF000332031F48FEF9FEFF801918B808B0AC053
:10400000D80150968D919C915197019651969C9311
:104010008E935097C45ADF4F0FB6F894DEBF0FBE91
:10402000CDBFCF91DF911F910F91FF90EF90DF9067
:10403000CF90BF90AF909F908F907F906F905F9048
:104040004F903F9008950F931F93CF93DF93EC0110
:104050008C0102551B4FC8010E94F725C8010E9420
:1040600042261882DF91CF911F910F910895CF932F
:10407000DF93EC010E94897E0E94FC7E19828FE30F
:1040800091E00E94A04ADF91CF9108952F923F9234
:104090004F925F926F927F928F929F92AF92BF9258
:1040A000CF92DF92EF92FF920F931F93CF93DF9304
:1040B000EC018B015D985C98FC01E452FB4F81E0C0
:1040C00090E091838083FE01E252FB4F10821182C7
:1040D00012821382CB0160E270E00E943F927C0169
:1040E000009789F4EBE4F1E006C09091C00095FFE1
:1040F000FCCF8093C60081918823B9F78091C000DE
:1041000085FFFCCFF7C0FC011082C8016BE571E0B0
:104110000E944A92009789F0EFE5F1E006C0909185
:10412000C00095FFFCCF8093C60081918823B9F72A
:104130008091C00085FFFCCFDDC0EAE0F3E007C05E
:104140009091C00095FFFCCF8093C600319684917A
:104150008823B1F7F801349606C09091C00095FF0E
:10416000FCCF8093C60081918823B9F78091C0006D
:1041700085FFFCCF8AE08093C6008E0102551B4F5D
:104180000894E11CF11CBE016B5E7B4FC801A701C6
:1041900026E50E947C28882369F5E6EFF2E007C057
:1041A0009091C00095FFFCCF8093C600319684911A
:1041B0008823B1F7F70106C09091C00095FFFCCFAE
:1041C0008093C60081918823B9F78091C00085FF54
:1041D000FCCF8AE08093C600E4EFF2E007C0909144
:1041E000C00095FFFCCF8093C60031968491882350
:1041F000B1F71FC0E2EEF2E007C09091C00095FF5A
:10420000FCCF8093C600319684918823B1F7F701E3
:1042100006C09091C00095FFFCCF8093C6008191AD
:104220008823B9F78091C00085FFFCCF8AE0809396
:10423000C600E6E7F1E006C09091C00095FFFCCF14
:104240008093C60081918823B9F78091C00085FFD3
:10425000FCCF8AE08093C60062E1C62ED12CCC0E42
:10426000DD1E53E1852E54E0952E8C0E9D1E4CEDE7
:10427000642E44E0742E6C0E7D1E3EEDA32E34E0C1
:10428000B32EAC0EBD1E22E1422E24E0522E4C0E67
:104290005D1E9CEA292E94E0392E2C0E3D1E809145
:1042A00088049091890420918A0430918B04821BA8
:1042B000930B8F779070009709F4A1C08CE894E07D
:1042C0000E94D20A0097D1F0C8010E94F725C801C8
:1042D0000E944226E9E7F1E006C09091C00095FFF8
:1042E000FCCF8093C60081918823B9F78091C000EC
:1042F00085FFFCCF8AE08093C60082C08CE894E002
:104300000E94E70A760180918804909189042091A7
:104310008A0430918B04821B930B8F7790700097E7
:1043200009F46CC08CE894E00E94E70AF3019183E1
:104330008083F70181937F01F501208131814281E2
:1043400053812F5F3F4F4F4F5F4F20833183428315
:104350005383009719F0E814F904A9F68A89882391
:10436000D1F0F2011082C101B6010E944172E6E76C
:10437000F1E006C09091C00095FFFCCF8093C6008D
:1043800081918823B9F78091C00085FFFCCFFAE0C6
:10439000F093C60084CFEBEDF2E007C09091C0002F
:1043A00095FFFCCF8093C600319684918823B1F7A6
:1043B000C252DB4F488159816A817B818CE894E04D
:1043C0002AE030E00E94A60BE6E8F1E006C09091FA
:1043D000C00095FFFCCF8093C60081918823B9F778
:1043E0008091C00085FFFCCF8AE08093C600C801A1
:1043F0000E94F725C8010E94422602C0FFCFFFCFCE
:10440000DF91CF911F910F91FF90EF90DF90CF90B0
:10441000BF90AF909F908F907F906F905F904F90E4
:104420003F902F9008950F931F930FEF1FEF2FEFE3
:104430003FE00E948B301F910F910895CF93DF933F
:10444000EC019C012C5F3F4F898D9A8D41E050E03B
:1044500060E070E00E9420318823A1F08D899E8960
:10446000AF89B88D0097A105B10571F48C819D814C
:10447000AE81BF818D8B9E8BAF8BB88F8981806819
:10448000898302C080E001C081E0DF91CF9108956F
:10449000DF92EF92FF920F931F93CF93DF93EC0184
:1044A00089899A89AB89BC89803E2FEF92072FE1D9
:1044B000A20720E0B20708F071C0CE010E941E22C0
:1044C000882309F46BC00E941D2F882309F466C05D
:1044D000E98DFA8DEC80FD800E811F818EEF9FEFBC
:1044E000AFEFBFEFE80EF91E0A1F1B1F058404C0C3
:1044F000EE0CFF1C001F111F0A94D2F786859785CA
:10450000A089B189E80EF91E0A1F1B1F81E0809364
:10451000DE06E092D804F092D9040093DA041093F6
:10452000DB0480E092E0ECEDF4E0DF019C011D9201
:1045300021503040E1F7DD24D39411C0B801A70128
:104540004D0D511D611D711D8091DC069091DD06A0
:104550002CED34E00E945081882301F1D394E98D41
:10456000FA8D8481D81650F320E032E040E050E02C
:10457000058404C0220F331F441F551F0A94D2F72D
:1045800089899A89AB89BC89820F931FA41FB51FA3
:10459000898B9A8BAB8BBC8B81E001C080E0DF9173
:1045A000CF911F910F91FF90EF90DF900895CF93DF
:1045B000DF93EC018C859D85AE85BF8541E0662348
:1045C00009F440E0BC01CD010E945A2F882351F02C
:1045D000288930E085E0220F331F8A95E1F72452C5
:1045E0003B4F02C020E030E0C901DF91CF91089538
:1045F000CF93DF93EA01FB012BE030E231932150AE
:10460000E9F7A82FB92F30E047E01DC04A3079F113
:1046100038E04AE018C0E21751F1FC010196E4913C
:10462000EE23C9F7431718F1213208F12F37F8F4B8
:10463000FB01E30FF11D822F81568A3110F4522FB6
:10464000505250833F5F9A2F8B2F2D91222341F0A0
:104650002F3231F0522F2E32C9F286E694E0DDCFB0
:104660009883898381E0FB019081903209F480E096
:10467000DF91CF9108950F931F93CF93DF93EC01B8
:104680008B018B81882309F040C0FB018789803131
:1046900009F041C082E08B831D8A1E8A1F8A188E12
:1046A000808D918DA0E0B0E025E0880F991FAA1FB2
:1046B000BB1F2A95D1F7898B9A8BAB8BBC8B13C010
:1046C00083E08B83F801428D538D648D758D4D8B06
:1046D0005E8B6F8B788F9E012F5E3F4FC8010E94CB
:1046E0001730882391F01A8F098F81E089831C820B
:1046F0001D821E821F82188619861A861B861C86BA
:104700001D861E861F86188A01C080E0DF91CF912A
:104710001F910F9108958032C1F7D2CF2F923F920F
:104720004F925F926F927F928F929F92AF92BF92C1
:10473000CF92DF92EF92FF920F931F93DF93CF936D
:1047400000D000D0CDB7DEB79C838B832A01DC017B
:1047500013968C911397882309F4D5C011968C91E8
:10476000119780FFD0C0E9C02C014E185F08862E3B
:10477000972E7201EB81FC813496FA83E983212C18
:10478000F2E03F2EBAC0AB81BC8118962D913D91CD
:104790004D915C911B97EFEF6E2EE1E07E2E622231
:1047A000732213966C91139759016A0179E0D6949C
:1047B000C794B794A7947A95D1F759968D919C9107
:1047C0005A97623051F4FC01428D538D648D758D82
:1047D0004A0D5B1D6C1D7D1D4EC0DC0114960C91B5
:1047E000149701500A216114710409F50023F9F4AA
:1047F000211531054105510559F4EB81FC8185896D
:104800009689A789B08D84839583A683B7830FC0CB
:10481000AB81BC8114964D915D916D917C91179700
:1048200029813A810E94962F882309F46CC0AB81BC
:10483000BC815996ED91FC915A9714964D915D91DA
:104840006D917C91179742505040604070400584B4
:1048500004C0440F551F661F771F0A94D2F7868540
:104860009785A089B189480F591F6A1F7B1F400F88
:10487000511D611D711DC1018619970987018E1592
:104880009F0508F48C01B2E000301B0709F06FC0EF
:104890008091D8049091D904A091DA04B091DB04FE
:1048A000481759076A077B0709F461C08091DC0645
:1048B0009091DD0694010E943080882349F423C042
:1048C000930124523B4FC401B901A8010E942B92CD
:1048D000800E911E980140E050E0EB81FC818085C4
:1048E0009185A285B385820F931FA41FB51F808772
:1048F0009187A287B387E01AF10AE114F10409F065
:1049000042CF920102C02FEF3FEFC9010F900F90ED
:104910000F900F90CF91DF911F910F91FF90EF902B
:10492000DF90CF90BF90AF909F908F907F906F90CF
:104930005F904F903F902F900895EB81FC8181898B
:104940009289A389B489E084F184028513855A0190
:10495000CC24DD249C01AD012E193F09400B510BE5
:10496000A216B306C406D50608F0FECE00CFCB01D2
:10497000BA0140E00E945A2F882309F0A1CFC3CF8B
:10498000DF93CF930F92CDB7DEB7BE016F5F7F4F3E
:1049900041E050E00E948E238130910519F4298175
:1049A00030E002C02FEF3FEFC9010F90CF91DF91B0
:1049B00008950F931F93CF93DF938C01EB01FC01BC
:1049C0008381823020F180859185A285B3858F71A6
:1049D0009070A070B0700097A105B105C1F4C80136
:1049E000BE0140E250E00E948E238032910519F012
:1049F000009769F40EC08881882359F0853E79F3C9
:104A00008E3269F38B8583FDEACF80E203C08FEF9E
:104A100001C080E0DF91CF911F910F910895EF9237
:104A2000FF920F931F93CF93DF93EC018B81823022
:104A300040F1E884F9840A851B85CE010E94C024D8
:104A400097FD1FC088859985AA85BB854F96A11DB6
:104A5000B11D88879987AA87BB87D801C70115E050
:104A6000B695A795979587951A95D1F78F70282FAA
:104A700030E0A5E0220F331FAA95E1F724523B4F07
:104A800002C020E030E0C901DF91CF911F910F916A
:104A9000FF90EF9008958F929F92AF92BF92CF9226
:104AA000DF92EF92FF920F931F93CF93DF93EC016E
:104AB0005A016B012B81222309F477C089899A89D5
:104AC000AB89BC8984179507A607B70708F46DC0A2
:104AD0007AC0A114B104C104D10449F41C821D821E
:104AE0001E821F82188619861A861B865CC048851E
:104AF00059856A857B85E98DFA8D258530E0275FAC
:104B00003F4FDB01CA010197A109B109022E04C080
:104B1000B695A795979587950A94D2F78601750162
:104B20000894E108F1080109110904C016950795D8
:104B3000F794E7942A95D2F7E816F9060A071B07B7
:104B400028F0411551056105710549F48D899E894B
:104B5000AF89B88D8C839D83AE83BF8316C0E81A5E
:104B6000F90A0A0B1B0B11C04C815D816E817F819C
:104B7000898D9A8D94010E94962F0894E108F1087E
:104B800001091109882331F410C084E0882E912C8A
:104B90008C0E9D1EE114F1040105110529F7A8866C
:104BA000B986CA86DB8681E001C080E0DF91CF91C3
:104BB0001F910F91FF90EF90DF90CF90BF90AF903B
:104BC0009F908F900895223009F083CFE8CF0F9304
:104BD0001F93FC010189128923893489400F511FD9
:104BE000621F731F0E944B251F910F9108950F9311
:104BF0001F93CF93DF938C01FC0183818823C9F13C
:104C0000818187FF33C0C80161E00E94D722EC0197
:104C1000009779F18881853E61F1F80183818230C6
:104C200040F481899289A389B4898C8F9D8FAE8F3E
:104C3000BF8FF80185899689A789B08D9B8F8A8F50
:104C4000BD8BAC8BE091D504F091D604309751F038
:104C5000BE016A5E7F4FCE0148960995888D998D79
:104C60009B8B8A8BF80181818F7781830E941D2F16
:104C700004C081E0F801808380E0DF91CF911F9133
:104C80000F910895CF93DF93EC010E94F7251B82CB
:104C9000DF91CF910895CF93DF93EC018B8188232F
:104CA00021F0CE010E94F7251B82DF91CF9108955C
:104CB0008F929F92AF92BF92CF92DF92EF92FF922C
:104CC0000F931F93DF93CF9300D000D0CDB7DEB703
:104CD0008C016A017B01FC018381813009F081C074
:104CE000818181FF7EC08FC00097A105B10509F4C5
:104CF00076C0F80180849184A284B384C801B7018E
:104D0000A6010E944B25882309F46BC0F801818D10
:104D1000928DC114D104E104F10479F445895689D6
:104D20006789708D0E943132882309F45AC0F801D6
:104D3000158A168A178A108E38C0F8014481558169
:104D4000668177819E012F5F3F4F0E94962F8823B7
:104D500009F447C0F801818D928D49815A816B8198
:104D60007C81FC012789203149F4483FFFEF5F0730
:104D7000F0E06F07F0E07F07C0F408C0483F2FEF76
:104D800052072FEF62072FE0720778F40E9431324A
:104D9000882339F1F8014481558166817781818DBD
:104DA000928D0E9413228823E1F0F801C18AD28AF1
:104DB000E38AF48A818180688183C8010E94F72593
:104DC000882379F0B701A6018C149D04AE04BF04BA
:104DD00010F4B501A401C8010E944B2503C081E075
:104DE00001C080E00F900F900F900F90CF91DF9156
:104DF0001F910F91FF90EF90DF90CF90BF90AF90F9
:104E00009F908F900895F80181899289A389B48930
:104E100084179507A607B70708F066CFE2CFCF93B0
:104E2000DF93EC0140E050E0BA010E94582688234D
:104E300069F0CE0161E00E94D722009739F025EE9B
:104E4000FC0120831B820E941D2F01C080E0DF91A6
:104E5000CF9108951F93CF93DF93EC01142FE62F8A
:104E6000F0E0DF0145E0AA0FBB1F4A95E1F7A4522D
:104E7000BB4F1B968C911B97817121F0812F827102
:104E800009F066C08091D8049091D904A091DA0409
:104E9000B091DB048C879D87AE87BF87688B35E038
:104EA000EE0FFF1F3A95E1F7E452FB4F8489958995
:104EB000A0E0B0E0DC01992788278D8B9E8BAF8B1B
:104EC000B88F428D538D60E070E0482B592B6A2BD0
:104ED0007B2B4D8B5E8B6F8B788F838590E08871F9
:104EE0009070009751F4848D958DA68DB78D898B28
:104EF0009A8BAB8BBC8B81E00DC08031910541F565
:104F00009E012F5E3F4F898D9A8D0E941730882316
:104F1000F9F084E08B83812F8F7089831C821D823E
:104F20001E821F82188619861A861B8614FF16C0D9
:104F3000CE0140E050E0BA010E945826882349F093
:104F40000DC0CE0140E050E0BA010E94E72502C04A
:104F50001B8280E0DF91CF911F91089515FDF1CF65
:104F600081E0F8CF8F929F92AF92BF92CF92DF9263
:104F7000EF92FF920F931F93CF93DF938C01EB017E
:104F8000942E852EA22E898D9A8DD8015A969C93A7
:104F90008E935997CB010E949E17BB2436C0CE0139
:104FA0000E940F25BC01009709F495C0F5E0F69426
:104FB000E794D794C794FA95D1F7BFE0CB22FC01D0
:104FC0008081882311F0853EB9F4BB2081F4809163
:104FD000D8049091D904A091DA04B091DB04F801CF
:104FE00084879587A687B787C08ABB24B394DB01E3
:104FF0008C91882351F417C0892D982D4BE050E0F7
:105000000E941E92009709F474C0C884D984EA846F
:10501000FB8489899A89AB89BC89C816D906EA06B6
:10502000FB0608F4BCCFA6FE56C0A1FE54C0BB20B0
:1050300051F0F801C088C80161E00E94D722EC015C
:10504000009771F448C08B81823009F444C0CE01CE
:105050000E944822882309F43EC0CCEDD4E0CC2441
:105060007E01EC2FFF2D80E2DF011D928A95E9F78A
:10507000DE019401832F982DFC018BE001900D92AD
:105080008150E1F7E091D504F091D604309739F0E2
:10509000BE01625F7F4FCE014096099508C081E254
:1050A00098E2998B888B80E098E09F878E8788892B
:1050B00099899B8B8A8B998F888F8E859F859F8BF3
:1050C0008E8B0E941D2F882331F0C8016C2D4A2D34
:1050D0000E942A2701C080E0DF91CF911F910F919C
:1050E000FF90EF90DF90CF90BF90AF909F908F9008
:1050F0000895A7FEEACFEFCF2F923F924F925F9293
:105100006F927F928F929F92AF92BF92CF92DF92D7
:10511000EF92FF920F931F93DF93CF93CDB7DEB73C
:10512000C454D0400FB6F894DEBF0FBECDBF2C01E3
:105130006B01FE01EE5BFF4F5183408325962FAF3D
:1051400025971C861F861FA21AA66115710509F4F2
:105150007AC0DC0113968C911397882309F073C0F1
:10516000DA018C918F3271F403C01196B183A08360
:10517000A081B1818C918F32C1F3F601838182507D
:105180008230A0F486018CE0E82EF12CEC0EFD1E9E
:10519000B2E4AB2EB12CAC0EBD1E4E010894811CA6
:1051A000911C1701C7017E2C692E11C08E01095D6B
:1051B0001F4FD60159966D917C915A97C8010E9454
:1051C0003B23882301F73FC08701E72CF62CF5012C
:1051D00080819181B401A5010E94F822882329F4DD
:1051E00032C03196D501ED93FC93D501ED91FC9140
:1051F000119780818F32A9F38823D9F0C701B801B4
:10520000A40121E00E94B2278823E9F00C151D05B6
:1052100029F0C8010E94F725F8011382E214F30473
:1052200099F6A7E2EA2EF12CEC0EFD1E072D162DA5
:10523000CECFC201B801A40125962FAD25970E94BB
:10524000B227082F01C000E0CE0187960E944B26AE
:10525000CE010C960E944B26802FCC5BDF4F0FB601
:10526000F894DEBF0FBECDBFCF91DF911F910F919C
:10527000FF90EF90DF90CF90BF90AF909F908F9076
:105280007F906F905F904F903F902F9008950F9375
:105290001F93DF93CF93CDB7DEB76B970FB6F8941C
:1052A000DEBF0FBECDBF9C01AB0119821C828E01F7
:1052B0000F5F1F4FC801B90122E00E947C2888239C
:1052C00029F0C8010E940F27082F01C000E0CE017D
:1052D00001960E944B26802F6B960FB6F894DEBF86
:1052E0000FBECDBFCF91DF911F910F9108952F92E7
:1052F0003F924F925F926F927F928F929F92AF9266
:10530000CF92DF92EF92FF920F931F93DF93CF9391
:1053100000D000D000D0CDB7DEB78C01C62EA72EAE
:105320005E834D83DC0113968C911397813009F0D5
:1053300066C111968C91119781FF61C17EC1F80100
:10534000208531854285538581899289A389B489D5
:10535000281739074A075B0749F0C80140E050E0C9
:10536000BA010E94E725882309F449C12C2C3A2C64
:105370004D805E8009C1D80159968D919C915A97B4
:1053800069017A0159E0F694E794D794C7945A9545
:10539000D1F7FC01A480AA94AC204FEF842E41E009
:1053A000942E82229322AA2009F049C081149104EC
:1053B00009F045C014964D915D916D917C911797C0
:1053C000411551056105710559F455968D919D91D1
:1053D0000D90BC91A02D0097A105B10559F524C0F1
:1053E0009E012F5F3F4F0E94962F882309F407C12B
:1053F00089819A81AB81BC81F801218D328DF901BF
:105400002789203149F4883FFFEF9F07F0E0AF077D
:10541000F0E0BF0748F40EC0883F2FEF92072FEF50
:10542000A2072FE0B20730F0C8010E941E22882395
:1054300031F4E5C0F80184839583A683B78380E0C7
:1054400092E08819990932018415950508F43C0108
:10545000D8015996ED91FC915A971496CD90DD9014
:10546000ED90FC9017978EEF9FEFAFEFBFEFC80E58
:10547000D91EEA1EFB1E058404C0CC0CDD1CEE1CEC
:10548000FF1C0A94D2F786859785A089B189C80E3A
:10549000D91EEA1EFB1ECA0CD11CE11CF11C90E0B7
:1054A000691692E0790631F58091D8049091D9047B
:1054B000A091DA04B091DB048C159D05AE05BF0503
:1054C00069F41092DE068FEF9FEFDC018093D80421
:1054D0009093D904A093DA04B093DB048091DC06A6
:1054E0009091DD06B701A60191010E9450818823A9
:1054F000B9F585C08114910419F5D80118962D913C
:105500003D914D915C911B9751968D919D910D9080
:10551000BC91A02D281739074A075B0788F00E9425
:105520001D2F882309F46BC081E08093DE06C092B2
:10553000D804D092D904E092DA04F092DB0408C0D7
:10554000C701B60141E00E945A2F882309F457C0D1
:10555000940124523B4FC901B101A3010E942B9237
:10556000930140E050E0F80180859185A285B385E4
:10557000820F931FA41FB51F80879187A287B387CF
:10558000260C371C46185708D80118962D913D91C6
:105590004D915C911B974114510409F0ECCEF80138
:1055A00081899289A389B48982179307A407B507D3
:1055B00040F4D80151962D933D934D935C935497AD
:1055C0000BC08091D5049091D604009761F0ED81D5
:1055D000FE81309741F0D80111968C911197806827
:1055E00011968C931197F801818183FF05C0C80142
:1055F0000E94F725882319F02D813E8105C081E0A6
:10560000D8018C932FEF3FEFC90126960FB6F8947F
:10561000DEBF0FBECDBFCF91DF911F910F91FF90E5
:10562000EF90DF90CF90AF909F908F907F906F9092
:105630005F904F903F902F90089582FD80CE96CE40
:105640002F923F924F925F926F927F928F929F9292
:10565000AF92BF92CF92DF92EF92FF920F931F9380
:10566000DF93CF9300D000D00F92CDB7DEB7E62EF8
:10567000A72E5A83498329018CE894E060E240E038
:1056800050E00E94E50B8091C00085FFFCCF8AE0CE
:105690008093C600882499240DC0C801B4010E94DB
:1056A0003C889091C00095FFFCCF8093C600089481
:1056B000811C911CD80114968D919C911597881688
:1056C00099065CF38091C00085FFFCCF8AE080934F
:1056D000C6001201220C331C220C331C0E2D1A2D75
:1056E000EE24FF24EEE9F4E0B491BB8370C0F40132
:1056F000A190B190C190D1904F01C601B5010E9417
:10570000DD899B01AC013B018CE894E0B9014AE0E2
:1057100050E00E94DB0B8B81EEE9F4E008C0909131
:10572000C00095FFFCCF8093C600319684918823FA
:10573000B1F7B301882777FD8095982F0E94108AD2
:105740009B01AC01C601B5010E94638820E030E0F6
:105750004AE754E40E94BB8C0E94DD8977FF03C0B6
:10576000709561957F4F8CE894E04AE050E00E948C
:10577000DB0BEEE8F1E006C09091C00095FFFCCF96
:105780008093C60081918823B9F78C819D81019611
:105790009D838C8303C048011D821C82AC81BD8126
:1057A000A415B5050CF4A3CF8CE894E060E240E0CA
:1057B00050E00E94E50B8091C00085FFFCCFBAE06D
:1057C000B093C6000894E11CF11C020D131DE98181
:1057D000FA81EE16FF06FCF20F900F900F900F90DB
:1057E0000F90CF91DF911F910F91FF90EF90DF907D
:1057F000CF90BF90AF909F908F907F906F905F9071
:105800004F903F902F9008952F923F924F925F922A
:105810006F927F928F929F92AF92BF92CF92DF92C0
:10582000EF92FF920F931F93DF93CF93CDB7DEB725
:1058300060970FB6F894DEBF0FBECDBF4D875E8771
:105840003C872B8718870F83C701880F991F880F04
:10585000991F9E838D836C2C7D2CD801AA0FBB1FB2
:10586000AA0FBB1FBA87A987462E572E222433249E
:10587000EE27FF27EE19FF09EE0FFF1FEE0FFF1FA8
:10588000FA83E98357C080E090E0DC01F90180836E
:105890009183A283B38368015C824B82AA24BB24D8
:1058A000388B2F8726C0AB81BC816D917D918D9106
:1058B0009D91BC83AB83E981FA81EC0DFD1D2081B4
:1058C0003181428153810E94BB8C9B01AC01EF85E9
:1058D000F88960817181828193810E946488AF859B
:1058E000B8896D937D938D939C9313970894A11C15
:1058F000B11CED81FE81CE0EDF1E8F819885A8162A
:10590000B9068CF22F8538890894811C911C0C5F94
:105910001F4F2C5F3F4F8E149F040CF4B4CF08949C
:10592000211C311CAD81BE816A0E7B1EE985FA8582
:105930004E0E5F1E8B859C85281639064CF49D857E
:105940008E85A92EB82E9301882499248501E3CF52
:1059500060960FB6F894DEBF0FBECDBFCF91DF913A
:105960001F910F91FF90EF90DF90CF90BF90AF907D
:105970009F908F907F906F905F904F903F902F906F
:1059800008952F923F924F925F926F927F928F92E3
:105990009F92AF92BF92CF92DF92EF92FF920F93BE
:1059A0001F93DF93CF93CDB7DEB76C970FB6F89404
:1059B000DEBF0FBECDBF7A8369838A012DB73EB7A4
:1059C0003A8F298FBA01615070407A8B698BCA0176
:1059D000880F991FADB7BEB7A81BB90B0FB6F894C7
:1059E000BEBF0FBEADBFEDB7FEB73196FE8BED8BE0
:1059F000F981FB8F2A812C8FBA01660F771F660F02
:105A0000771F7C836B838D899E899C8B8B8BDA01BE
:105A10001196AA0FBB1FAA0FBB1FB88BAF878F2F82
:105A2000922F98878F839E838D839E878D872224D4
:105A300033243AC1F201E080F18002811381F1E068
:105A4000F987C801B70120E030E0A9010E94718BFD
:105A500018162CF01986C801B701905802C0C80169
:105A6000B701A40193010E94718B87FD0EC02985A7
:105A7000222339F43701480197FA909497F89094CB
:105A800002C037014801AF8AB88E0894A11CB11C2E
:105A90006B817C81460E571EAC14BD045CF28601FE
:105AA000AF88B88CAC9C7001AD9CF00CBC9CF00C29
:105AB0001124F701E20DF31DEE0FFF1FEE0FFF1F84
:105AC00089819A81E80FF91F6081718182819381B8
:105AD00020E030E0A9010E943D898823B9F4E6E77F
